{
  "contractName": "ShareRevenueContractinEther",
  "abi": [
    {
      "constant": true,
      "inputs": [],
      "name": "getSecondPartyAddress",
      "outputs": [
        {
          "name": "",
          "type": "address"
        }
      ],
      "payable": false,
      "stateMutability": "view",
      "type": "function"
    },
    {
      "constant": true,
      "inputs": [],
      "name": "getMyBalance",
      "outputs": [
        {
          "name": "",
          "type": "uint256"
        }
      ],
      "payable": false,
      "stateMutability": "view",
      "type": "function"
    },
    {
      "constant": false,
      "inputs": [
        {
          "name": "_first_party_address",
          "type": "address"
        },
        {
          "name": "_second_party_address",
          "type": "address"
        }
      ],
      "name": "updatePartyAdress",
      "outputs": [],
      "payable": false,
      "stateMutability": "nonpayable",
      "type": "function"
    },
    {
      "constant": false,
      "inputs": [
        {
          "name": "_x",
          "type": "uint8"
        }
      ],
      "name": "updateShareAmountForEther",
      "outputs": [],
      "payable": false,
      "stateMutability": "nonpayable",
      "type": "function"
    },
    {
      "constant": false,
      "inputs": [],
      "name": "depositEther",
      "outputs": [],
      "payable": true,
      "stateMutability": "payable",
      "type": "function"
    },
    {
      "constant": true,
      "inputs": [],
      "name": "getsharingAmountForFirstPartyEther",
      "outputs": [
        {
          "name": "",
          "type": "uint8"
        }
      ],
      "payable": false,
      "stateMutability": "view",
      "type": "function"
    },
    {
      "constant": true,
      "inputs": [],
      "name": "getFirstPartyAddress",
      "outputs": [
        {
          "name": "",
          "type": "address"
        }
      ],
      "payable": false,
      "stateMutability": "view",
      "type": "function"
    }
  ],
  "bytecode": "0x6060604052336000806101000a81548173ffffffffffffffffffffffffffffffffffffffff021916908373ffffffffffffffffffffffffffffffffffffffff160217905550610477806100536000396000f300606060405260043610610083576000357c0100000000000000000000000000000000000000000000000000000000900463ffffffff16806349fab258146100885780634c738909146100dd5780636e6ba2871461010657806385e274a31461015e57806398ea5fca14610184578063e3abdcd01461018e578063e3ee9807146101bd575b600080fd5b341561009357600080fd5b61009b610212565b604051808273ffffffffffffffffffffffffffffffffffffffff1673ffffffffffffffffffffffffffffffffffffffff16815260200191505060405180910390f35b34156100e857600080fd5b6100f061023c565b6040518082815260200191505060405180910390f35b341561011157600080fd5b61015c600480803573ffffffffffffffffffffffffffffffffffffffff1690602001909190803573ffffffffffffffffffffffffffffffffffffffff1690602001909190505061025b565b005b341561016957600080fd5b610182600480803560ff169060200190919050506102e1565b005b61018c610312565b005b341561019957600080fd5b6101a161040b565b604051808260ff1660ff16815260200191505060405180910390f35b34156101c857600080fd5b6101d0610421565b604051808273ffffffffffffffffffffffffffffffffffffffff1673ffffffffffffffffffffffffffffffffffffffff16815260200191505060405180910390f35b6000600260009054906101000a900473ffffffffffffffffffffffffffffffffffffffff16905090565b60003073ffffffffffffffffffffffffffffffffffffffff1631905090565b81600160006101000a81548173ffffffffffffffffffffffffffffffffffffffff021916908373ffffffffffffffffffffffffffffffffffffffff16021790555080600260006101000a81548173ffffffffffffffffffffffffffffffffffffffff021916908373ffffffffffffffffffffffffffffffffffffffff1602179055505050565b60648160ff16111515156102f457600080fd5b80600060146101000a81548160ff021916908360ff16021790555050565b60008060003492506064600060149054906101000a900460ff1660ff16840281151561033a57fe5b0491508183039050600160009054906101000a900473ffffffffffffffffffffffffffffffffffffffff1673ffffffffffffffffffffffffffffffffffffffff166108fc839081150290604051600060405180830381858888f1935050505015156103a457600080fd5b600260009054906101000a900473ffffffffffffffffffffffffffffffffffffffff1673ffffffffffffffffffffffffffffffffffffffff166108fc829081150290604051600060405180830381858888f19350505050151561040657600080fd5b505050565b60008060149054906101000a900460ff16905090565b6000600160009054906101000a900473ffffffffffffffffffffffffffffffffffffffff169050905600a165627a7a72305820e93ba5c87c9bab4d4af463f46bc5cd76d6578651fcec5f4a0b92cdca12abbee40029",
  "source": "pragma solidity ^0.4.13;\n\n\nimport \"./owned.sol\";\n\ncontract ShareRevenueContractinEther is owned {\n\n    ///////////////////////\n    // GENERAL STRUCTURE //\n    ///////////////////////\n\n    // REVENUE SHARING\n    uint8 sharingAmountForFirstPartyEther;\n    \n    // PARTIES\n    address firstPartyAddress;\n    address secondPartyAddress;\n\n    ////////////\n    // EVENTS //\n    //////////// \n\n    ///////////////////\n    // DEPOSIT ETHER //\n    ///////////////////\n    function depositEther() payable {\n        uint amountInWei = msg.value;\n        uint amountInWeiForFirstParty = amountInWei * sharingAmountForFirstPartyEther / 100;\n        uint amountInWeiForSecondParty = amountInWei - amountInWeiForFirstParty;\n        firstPartyAddress.transfer(amountInWeiForFirstParty);\n        secondPartyAddress.transfer(amountInWeiForSecondParty);\n    }\n\n    function getMyBalance() constant returns (uint) { return this.balance; }\n\n    //////////////////////\n    // PARTY MANAGEMENT //\n    //////////////////////\n\n    function getFirstPartyAddress() constant returns (address){\n        return firstPartyAddress;\n    }\n    \n    function getSecondPartyAddress() constant returns (address){\n        return secondPartyAddress;\n    }\n    \n    function getsharingAmountForFirstPartyEther() constant returns (uint8){\n        return sharingAmountForFirstPartyEther;\n    }\n\n    function updatePartyAdress(address _first_party_address, address _second_party_address) {\n        firstPartyAddress = _first_party_address;\n        secondPartyAddress = _second_party_address;\n    }\n    \n    function updateShareAmountForEther(uint8 _x) {\n        require(_x <= 100);\n        sharingAmountForFirstPartyEther = _x;\n    }\n}",
  "sourcePath": "/Users/duc4nh/Rth/eth/share_revenue_smart_contract/contracts/ShareRevenueContractinEther.sol",
  "compiler": {
    "name": "solc",
    "version": "0.4.18+commit.9cf6e910.Emscripten.clang"
  },
  "schemaVersion": "1.0.1",
  "updatedAt": "2018-02-01T06:35:21.774Z"
}